:400000000080002011000000C5090000C509000008B5054B1A6803F53F5302331A6000F0A7FD00F0D7FC00BFFA460040080002230000087608000323000010760800042387
:400040000000187608000523000020760500062300002070050007230000307005000823000040700500FE230000507010000A220000005150000B22000020511000FE222E
:400080000000C051FF0F0D220000000001000E220000FF0F80030F22000000148001102200000018000211220000001A80001222000000418000132200000042800014222F
:4000C00000000043000315220000004480001622000000480001172200000049800018220000004C000119220000004D2000FE220000005007001B23000078520800FE2365
:400100000000784508001D230000005180001E230000804C80001F23000000478000202300008047800021230000801980002223000080178000232300008048800024233B
:40014000000080438000252300008042800026230000804180002723000000408000FE23000080404000000000000000C000000F0B00000000000400140101000000010107
:4001800000000000000140010000000000004001000000002001400100000000200040000000000000000000000000000000000000000000000000000000000000000000FA
:4001C00000000000000000000000000000000000000000000000000000000000000000000000000000000000000000300000000000000000000000000000000000000000CF
:4002000000000000000000000000000000000000000000000000000000000000000000000000000000000000000000000000000000000000000000000000000000000000BE
:4002400000000000000000000000000000000000000080000040000000000000000000000000000000000000000000000000000000000000000000000000000000000000BE
:40028000000000000000000000000000000000000000000000000000000000000000000000000000000000000000000000000000000000000000000000000000000000003E
:4002C000000000000040800000000000000000000000000000000000000000000000000000000000000000000000000000000000000000000000000000000000000000003E
:4003000000000000000000000000000000000000000000000000000000000000000000000000000000000000000000000000000000000000000000000000000000000000BD
:4003400000000000004080000000000000000000000000000000000000000000000000000000000000000000000000000000000000000000000000000000000000000000BD
:40038000000000000000000000000000000000000000000000000000000000000000000000000000000000000000000000000000000000000000000000000000000000003D
:4003C000000000000040800000000000000000000000000000000000000000000000000000000000000000000000000000000000000000000000000000000000000000003D
:4004000000000000000000000000000000000000000000000000000000000000000000000000000000000000000000000000000000000000000000000000000000000000BC
:4004400000000000000000000000000000408000000000000000000000000000000000000000000000000000000000000000000000000000000000000000000000000000BC
:4004800000000000000000000000000000500000000000000000000000000000000000000000000000000000000000000000000000000000000000000000000000000000EC
:4004C00000000000000000000000000000000000000000000000000000000000000000000000000000000000000000000000000000000000000000000000000000000000FC
:40050000000000000000000000000000000A0000000000000000000000000000000000000000000000000000000000000000000000000000000000000000000000000000B1
:40054000000000000000000000000000000000000000000000000000000000000000000000000000000000000000000000000000000000000000000000000000000000007B
:40058000000000000000000000000000000A000000000000000000000000000000000000000000000000000000000000000000000000000000000000000000000000000031
:4005C0000000000000000000000000000000000000000000000000000000000000000000000C000000000000000000000000000000000000000000000000000000000000EF
:400600000000000000000000000000000000000000000000000000000000000000000000000000000000000800000000000040000000000000000000000000000000000072
:40064000000000000000000000000000000000000000000000000000000000000000000000000000000000000000000000000000000000000000000000000000000000007A
:40068000000000000000000000000000000000000000000000000000000000000000000000000000000000000000000000000000000000000000000000000000000000003A
:4006C00000000000000000000000000800004000000000000000000000000000000000000000000000000000000000000000000000000000000000000000000000000000B2
:40070000000000000000000000000000000000000000000000000000000000000000000A00000000000000000000000000020000000000400000000010B5054C237833B9D0
:40074000044B13B10448AFF300800123237010BD4881FF1F00000000F0280000084B10B51BB108490848AFF300800848036803B910BD074B002BFBD0BDE81040184700BF2F
:40078000000000004C81FF1FF0280000C880FF1F0000000008B500F0A1FCFEE770B572B6694A102113784FF49C7043F004031370664A00231360664A03241170A2F5BE6284
:4007C00001211170537202F5FE621080614801704470614CA0F5FF70A0F8004247F60804A0F8024203805D4B4FF480401880A3F2DD53092018700C2018741A2083F8200063
:400800001C2083F83000BFF35F8F153B1970BFF35F8F118889B20029FBD15148514A524C50F8041F89B222F8081BA242F8D1BFF35F8F01221A70BFF35F8F4C4A1378DC079C
:40084000FCD44B4A1378D807FCD44A4A1378D907FCD4494A1378DB07FCD4484B1C7814F00104FBD1464A474E1378192543F002031370137C43F002031374434BA2F57E4262
:4008800018685968133A03C2198940481180194651F80A2F02604A683D4942600A78D3F8120042F008020A703A4A3B4B61211170062283F800221860522203F580731A70C5
:4008C000364B374A1B78DBB21370364B4FF4E2621A8041F2512223F8022C33784FF4F07003F0010343EA440400F0D6FE013D04F0030428D0032CF0D12B4A4FF480731380E5
:400900002A4907231370482000230B70887013705371274B02221A70C12283F8FF27254B254A1B78254CDBB203F007011B0911705370234B44221A70A3F5A653163B0FCBC1
:4009400007C4238070BDFEE7E84600406881FF1F00760040027800402C00000006760040F02800000C780040447900401870004028700040387000404870004058700040C9
:40098000035001402542004064010000125100402243004000480040004100400F010049A146004022420040044000400640004001400040CF0100496E580040B043004045
:4009C0007658004008B501F04FFF03680C2B00D1FEE7FEE780B51148114B0025C0B1A3F1100192C922460439161BB74204D051F8046F42F8046BF7E7114653F8046C8C1A92
:400A0000A64202D041F8045BF9E701381033E5E701F030FFFFF7BEFEFEE700BF010000002C2B0000104A114B10B41A60104A114C1368114843F4007313600023032B98BF2A
:400A400054F823204FEA830188BF0C4A0133302B4250F3D10A4B1A780A4B1A700A4B064A10BC1A60FFF79ABE0004FA050CED00E014ED00E0000000000080FF1FC509000080
:400A8000BC760040C080FF1F08ED00E000470023014422B1013A885C0344DBB2F9E71846704701380B284FD8DFE800F0060C12181E24302A363C42480902C1F57F3101F5A2
:400AC000707147E00902C1F57F3101F2C13144E00902C1F57F3101F2C53136E00902C1F57F3101F2C93138E00902C1F57F3101F574712FE00902C1F57F3101F2D13129E0C4
:400B00000902C1F57F3101F2D6311EE00902C1F57F3101F2D23118E00902C1F57F3101F5757112E00902C1F57F3101F5767114E00902C1F57F3101F577710BE00902C1F571
:400B40007F3101F5787108E000210B78487843EA002070470878C0B270470B784A788878000440EA02201843CB7840EA0360704710B50B4A137803F0C003802B0ED100246D
:400B8000147021460220FFF78CFF38B121460220FFF787FFBDE81040FFF778BF10BD00BFFA460040F8B5014606460320FFF779FF314605460420FFF774FF013500EB052520
:400BC00031460320FFF76DFF0024274601300002854209D910F8013B5A1ED2B2FD2A1C4498BF0127E4B2F3E731460320FFF759FF114B01309D424FEA00204FEAD00014BF4D
:400C0000ED084FF40045A84206D200F190431B7801301C44E4B2F6E731460120FFF741FF6442E4B2844204D1002F0CBF06200020F8BD0620F8BD00BFC0FF030080B5ADF54D
:400C40001C7D00F01DFB10B1002000F0D5FB00F077FA62B600252F46DFF87C84FF236A464FF4967106A800F09BFA0028F6D1BDF80020062A57D99DF81830012B53D1BDF8F3
:400C80001A40E31D93424BD8B3F5967F48D806AB23449B79172B46D1231D9BB20DF117022BB1D15C013B084480B29BB2F8E706AB1A1951791379404243EA012380B28342E9
:400CC00033D00824002101238DF818300A1D0B0A8DF81B30ADF802108DF819408DF81A1092B200230DF117002AB1845C013A23449BB292B2F8E75B4207AA9BB253540DF1DA
:400D00001D021B0A53540DF11E0317225A54073196230DF1020289B206A800F022FA9DE70324CFE7C7BB0424CCE79DF819309DF81C60A3F13102142A00F21B8101A151F8AF
:400D400022F000BF250D00001F0E0000730F0000650E0000DD0E0000730F0000E70E0000070F0000650E0000270F00005B0F0000730F0000730F0000730F0000730F0000BB
:400D8000730F0000730F0000730F0000730F0000730F0000B10D0000002CC4D12046FFF701FFB0FA80F040098DF81C0039468AE7002FB8D0032C03D040F223139C42B2D158
:400DC000032CBDF81D9005D0E21E0DF11F0151A801F076FDA6F140033F2B07D809F1806303F500631A011021802308E0032E00F2E78009EB06234FF480711A020B469945BA
:400E000080F0E080002051AB145C10F803E0A64540F0ED80013084B2A142F5D8D4E0002F81D0012C7FF47FAF032E3FF67CAFA64B1B681B68C3F30742964202D1C3F30723B8
:400E400003E08CBF00234FF480738DF81C301B0A8DF81D300024FF238DF81E308DF81F40042130E7342B12D1002F3FF45CAF032C7FF459AFA6F140033F2B8CBF4FF49075BA
:400E800010252A46002151A801F025FD05E0002F3FF449AF022C7FF646AF51AB033C224658190DF11F0101F00BFDA6F140032C443F2BA4B204D800F077FA8023102203E05F
:400EC0004FF480734FF49072944240F09280BDF81D509D42C0F09C80012773E0002F3FF422AF0025BAE6002F3FF41DAF6619B6F5967F3FF715AF51AB5819224607A901F042
:400F0000DFFCB5B281E0002C7FF40DAF6F4A03AB92E8030007AA83E8030082E80300254601270821CFE6002F3FF4FDAE032C7FF4FAAEA6F140033F2BBDF81DA008D800F0F5
:400F400033FABAF17F0F4FEA0A1140F2858039E0BAF1FF0F40F28B8034E00020FFF722FE10B9802388F8003000F0F6F800F046FAD9E6574A1268002A40D0002F41D0ADF804
:400F80000640002607AC03A98DF80430029403960496059401A89047BDF81010B1F5937F02D3059BA34205D0059B03B929B99DF80C4088E60E24314685E60E24194682E675
:400FC00009247FE60A247DE6032E1ED8A9421CD206F510360B4409EB062903F12002C3EB491919F8030013F8011B88420BD0022468E6002501270324294664E605241146F4
:4010000061E605245EE69A42EBD1002421465AE63F2E0ED82C4A05EB062312689BB21268C2F30F2112F0FF0F1CBF013189B28B420ED32346294651AA304600F04FF90028E2
:401040000CBF00240A24002500F0FEF90127D3E7002501270A24CFE710221E48FFF717FD044664428DF81C40012100242BE64FEA062909EB0A014FF4807209020020FFF7AD
:4010800006FD3F2E0446ECD809F11079D1444FEA4919002313F8090001330444202BE4B2F8D1032EDDD1BAF1FF0FDAD100210520FFF7F7FC201AC4B200210620FFF7F1FCD6
:4010C000201AC4B2CDE700BFCC80FF1F902900006C81FF1F00800040FA46004038B50020FFF760FD144C0021236800281A68084614BF06250025FFF7CAFC63681B78181A8C
:4011000000F0FF00834202D123681B6813B9002000F072F9094B1A7802F0C002402A1A4600D01DB100231370FFF788FD80221A70BDE8384000F062B9CC80FF1FFA46004072
:4011400008B562B60221002000F090FB014B01221A7008BD7081FF1F00F0C6BB012000F085BC70B503EB83030E4615460146402202205C0000F03CFC022000F01DFC30B9A1
:401180002CB10120013C00F041F9A4B2F4E7022000F012FC10B12E80002070BD102070BD2DE9F84303EB83035C00224B17461A78804689461E46A2B1254600F0EBFB30B96D
:4011C0002DB10120013D00F021F9ADB2F5E700F0E1FBA0B100F0E4FBFFF7C0FF002333700DE000F0DDFB50B100F0D4FB38B1FFF7B5FF04E054B100F009F9013CA4B201206F
:4012000000F0DAFB01284FF00100F3D100F0D4FB01280AD14A46402A28BF4022414600F039FC38800020BDE8F88300233B801020BDE8F8837081FF1F38B500F03FF900F0D0
:40124000DDF9C0B900F014FA0728044610D10B4D2A780A4B910703D4012000F0EDF8F7E71A78920704D51B789B0814BF0724002400F0E4F900E00424204638BD2247004000
:4012800070B5FFF7D9FF044610BB00F017F900F0B5F9E0B9012000F097F907280AD10D4D02210D4800F01CF902280A4E05D02B789B07F5D54FF0FF3406E033789A0703D48C
:4012C000012000F0B9F8F8E700F0B8F900E00424204670BD224700407F81FF1F41282DE9F04105460E46174698460AD8441F3A2C8CBF002401243F2804D8B1F5807F30D891
:4013000006E00124812E28BF0124B8F1100F28D13FB334BB00F072F928BB43463A463146284600F0FBF8072834D1DFF8748098F800201B4B12F0020F1F4603D1012000F0C4
:401340007BF8F4E71A78900706D51B789B080CD002E01A78920719D44FF0FF3400F06EF91AE0012418E0042416E00E4A314653782846127800F008F907280BD13A78084B7E
:401380009107E6D4012000F057F8F7E71B789B08E4D0E1E70446E1E72046BDE8F08100BF224700407F81FF1F08B500F07DF90F4A137843F008031370137C43F008031374BB
:4013C0000B4BC8221A700B4A137843F010031370137C43F01003137402F5557213789B06FCD5BDE8084000F063B900BFA043004001470040AC43004001BE7047024A137884
:4014000043F0010313707047F646004038B50446084DB4F5004F05D9286800F03DF9A4F50044F6E7034B58686043BDE8384000F033B900BFD480FF1F024B1B7A584300F0A5
:401440002BB900BFD480FF1F08B500F02DF900BF00BF00BF00BF00BF00BF00BF00BF00BF00BF00BF00BF00BF00BF00BF00BF064A13889BB243F0040313801388BFF36F8F44
:40148000BDE8084000F014B900480040054A00F01F00126800F1100352F8230042F82310704700BF08ED00E000F01F0000F16040490100F56440C9B20170704708B500F026
:4014C000F3F8064A137843F008031370137C43F008031374BDE8084000F0EAB8A04300402DE9F0410E464B1E0A4FDFF82C80451EC418A5420BD03B78DB0703D40120FFF70B
:401500009BFFF8E798F8003005F8013FF1E73046BDE8F081224700402047004070B5184D2C78A60727D5174CB6262670D5262670022626702D78AD071FD416462070B51A7F
:40154000ADB2AB4203D916F8015B2570F7E7B3F5807F01D0072070BD3F28FBD800F5103001EB0021490100235A5C0133D2B2202B2270F9D1EEE7042070BD092070BD00BF61
:40158000224700402047004070B50D4D2C78A60712D50C4CB6262670D8262670052626702D78AD070AD42070080AC9B22070217022702370072070BD042070BD092070BD70
:4015C00022470040204700400A4A137899070CD5094BB6211970E12119700E2119701278920704D4187007207047042070470920704700BF224700402047004038B500F03C
:4016000053F80C4A147874B901250B4915700B682B400AD00B6823F001030B6000BF00BF00BF556002E0042400E01C4600F040F8204638BD7481FF1F0400084010B500F0CF
:4016400033F8094B00215A681970012A08D1074C226842F00102226000BF00BF00BF5960BDE8104000F024B87481FF1F04000840074B1B789B0708D5064BB6221A70E022B8
:401680001A700D221A70072070470420704700BF22470040204700400230800803D000BF01380046FCD17047EFF3108072B6704780F31088704700BFF8B5FFF7F5FF384AE5
:4016C00001251378022743F001031370137C354C43F001031374344B02F5E3521D700B3203F8947C1378064603F07F0313700020FFF7A2FE23782D4A03F0F9032370137864
:40170000284603F0DF03137023782B432370FFF793FE2820FFF790FE254B38461A7802F07F021A701A7802F0BF021A7023783B432370FFF781FE2378304643F004032370A9
:401740001C4B00241C705C70FFF7B2FF07211720FFF7AAFE18491720FFF798FE07211820FFF7A2FE15491820FFF790FE20460721FFF79AFE12492046FFF788FE28460721BF
:40178000FFF792FE0F492846FFF780FE07210C20FFF78AFEBDE8F8400B490C20FFF776BEA5430040944300409D60004012600040F851004084600040491F0000AD1D000003
:4017C000ED1E0000191F00004121000008B51A4B01221A70194B1870194800230370194803701948037019480370194803701948037019480370194B4FF4000018604FF03C
:40180000807018601A6002221A60154B19B91A7802F0FE0202E01A7842F001021A70114B03221A70802203F8202C0120FFF734FF0D4B04221A7008BD1482FF1F9481FF1F4D
:401840009A81FF1F9881FF1F9981FF1F9581FF1F8481FF1F9781FF1F0C82FF1F00E100E009600040286000401260004070B5074C054623780E461BB9FFF71EFF0123237053
:4018800031462846BDE87040FFF7A0BF7C81FF1F0C4B01221A700C4A002313700B4A13700B4A13700B4A13700B4A13700B4A13700B4A13700B4B03221A70802203F8202C80
:4018C000704700BF1482FF1F9A81FF1F9881FF1F9981FF1F9581FF1F8481FF1F9781FF1F0C82FF1F2860004008B5FFF7DDFE1F4A137803F07F031370937A03F0FB03937298
:40190000A2F5E352033A137803F0FE031370137C03F0FE031374164B1A7842F080021A701A7842F040021A70FFF7C2FE114B4FF400021A604FF080721A6001221A60022294
:401940001A6000F063FF0C4B4FF480521A600B4A002313700A4A13700A4A13700A4A13700A4A13700A4A137008BD00BF08600040F851004080E100E080E200E09881FF1F18
:401980009981FF1F9581FF1F8481FF1F9781FF1F7C81FF1F014B1878704700BF9981FF1F044B1A7802F0FF001AB118780022C0B21A7070479881FF1F024A0C2303FB0020EB
:4019C00040787047A081FF1F431E072B0CD8074A064B00010344805C5B7800F00F0043EA0020023880B2704700207047FC5F0040431E072BF0B531D8194B0C2505FB00353D
:401A0000EC88184FA4B2C4F50074A2424FF00C0404FB003488BFEA88E67884BFC2F5007292B2104C46EA12260501EE552C44D6B2667041B90C2202FB003000234370437959
:401A4000DBB2A370F0BD0E46074F2F44751AADB2AA42EFD916F8015B3D72F7E7F0BD00BFA081FF1FFC5F004070600040431E072B0AD8064A0C2303FB002300225A705A7939
:401A8000034BD2B200011A54704700BFA081FF1FFE5F004038B505461446D1B1431E072B19D8FFF791FFA04203D22846FFF78CFF04460A4609482B011844531A9BB29C42C4
:401AC00003D9037A02F8013BF7E72846FFF7CEFF02E00C4600E00024204638BD7060004030B51A4A1A491B4D0878138803449BB21380194A00231488D8B2A4B27CB1082BED
:401B00000CD050680078C0B2E85450680133013050601088013880B21080ECE718460B780E4C082B0E4A00D040B10E4D2B7883F080032B700F232370022301E0022323701F
:401B40001370094B1870087030BD00BF1082FF1F0C82FF1F006000408881FF1F8581FF1F9A81FF1F9681FF1F0D82FF1F074B02221A70074B80221A70064B0F221A70064AA6
:401B800000231370054A0120137070479A81FF1F9681FF1F8581FF1F0C82FF1F0D82FF1F30B5164B16491B780A8803F00F03023BDBB21A4492B20A80124C134A00201188B1
:401BC00089B279B173B15568215C013BC9B229705168DBB20131516011880130013989B21180ECE7094A1370094A137883F080031370084B0B221A7030BD00BF296000405A
:401C00001082FF1F006000408881FF1F0D82FF1F9681FF1F8581FF1F064A06231370064A01201370054B80221A70054B00221A70704700BF9A81FF1F8581FF1F9681FF1FB7
:401C40000D82FF1F054B9A683AB19A68044910709A680988518000229A6070478881FF1F1082FF1F08B5124B1A78D2B21A701B78DBB21A0602D50F4A137008BD0220FFF713
:401C8000E1FF0D4B1B7803F06003202B05D0402B06D043B900F07EFC04E000F0BFFD01E000F0AAFD10B9034B03221A7008BD00BF286000408581FF1F0060004008B5084A4F
:401CC000084B0120197813880B449BB21380064B00221A70FFF7B6FF044B03221A7008BD1082FF1F0C82FF1F9A81FF1F8581FF1F08B50C4B1B78DBB2042B07D0062B09D0AD
:401D0000022B0DD1BDE80840FFF7D8BFBDE80840FFF746BF0320FFF795FF034B03221A7008BD00BF9A81FF1F8581FF1F08B5054B002201201A70FFF785FF034B03221A705A
:401D400008BD00BF9A81FF1F8581FF1F08B50A4B1A7832B11A78094942F080020A7000221A70074B002201201A70FFF76BFF054B03221A7008BD00BF8481FF1F0860004070
:401D80009A81FF1F8581FF1F074B1B78DBB2042B05D0062B05D0022B05D1FFF7A1BEFFF7C5BFFFF7D3BF70479A81FF1F38B51D4C2378DBB2DD0634D518060AD503F00F0394
:401DC000012B2ED1FFF74EFF174B1B78190609D538BD5A0602D5FFF7D7FF03E09D0620D5FFF786FF23781B061BD4104B1A78104B1B7813430F4A13701278934211D10A4A48
:401E00000849154613782078DBB2000605D41378DBB20B700B7803F00F0328788342F1D138BD38BD286000408581FF1F9681FF1F0D82FF1F29600040054A00231380054A50
:401E4000916819B191680B7092685380704700BF1082FF1F8881FF1F0E4808B503889BB213B9FFF783FE13E00B4B02221A700B4B00221A70FFF7E0FF094AD17993790288E2
:401E800043EA012392B2934238BF0380FFF728FE012008BD8881FF1F9A81FF1F9681FF1F0060004008B50C4B04221A700B4B80221A70FFF7C1FF0A4A0120D179937943EA13
:401EC000012308490A8892B2934238BF0B80064B0B221A7008BD00BF9A81FF1F9681FF1F006000408881FF1F8581FF1F084B01221A700F3B9B7C074B1A7B02F00302012AF1
:401F00001EBFDA7B82F08002DA7301225A7370470B600040A081FF1F094B02221A700F3B93F82230074B1A7E02F00302012A1EBFDA7E82F08002DA7601225A76704700BF86
:401F40000B600040A081FF1FFFF7A2BC08B50B4B18780138C0B200F035F9094B09491B79DBB200EBC3004269CB5C02EBC3035B68054A596A0B781380516008BD9981FF1F24
:401F8000006000408681FF1F8881FF1F08B50D4B18780138C0B200F015F90B4B0B491B79DBB200EBC3004269CB5C02EBC3035B68DB69597813F8022B42EA012204490A80B3
:401FC0004B6008BD9981FF1F006000408681FF1F8881FF1F38B5174C00232380164B18780138C0B200F0EEF8144AD3781179DBB2F1B913490978CDB2591E022918D84169C3
:4020000003F1005301EBC5014968013B927801EBC30011F83330D2B2934209D30C2353434168CA185068CB5A606023809368A36038BD00BF8881FF1F9981FF1F006000401F
:402040008681FF1F10B5394B1A791978D2B211F0800F194632D05B78013B052B63D8DFE803F0101826626203CB78212B02D1FFF76DFF08E02D4BDB78222B54D1FFF786FFAC
:4020800001E0FFF7A7FF2A4B1B889BB2002B4AD009E0002A47D18B78002B44D1244B01221A80244A5A60BDE81040FFF7D5BE002A39D11F4B01221A801F4AF3E75978C9B2CF
:4020C0000A290DD00B2922D009292CD1FFF782FF174B1B889BB233B3BDE81040FFF7E2BE0ABB9A7802F0FF01EAB9DB78114ADBB21370124B14781878844201D219700EE08E
:40210000197801290BD91278D2B21A7007E052B99A78012A07D89B78074ADBB21370BDE81040FFF779BD002010BD00BF006000408881FF1F1282FF1F1482FF1F1382FF1F39
:4021400000F064BB2DE9F0411A4D01222E460C2080274FF0080E184B00FB025C14012344187016499CF805802144B8F1000F07D09CF8044024064CBF887081F802E000E077
:402180008F7000FB0261CC880132E4B29C71CC88092AC4F30724DC71CC88E4B21C71C988C1F307215971D6D1054BFF221A70BDE8F08100BFA081FF1F70600040FC5F004013
:4021C0000A600040064B074A1B7802EBC30253681A7C824286BF03EBC0035869002070479481FF1F982900002DE9F84F424B1A78002A7ED01878414D0138C0B2FFF7E2FF23
:40220000A8463F4AC3681478007ADFF800C1E4B203EBC0000C2600274FF0010E834268D01A78A24263D11CF80420597891425ED19A7893F8039002F07F0206FB02FA05EB31
:402240000A01CF7093F802B009F0030981F804B093F803B005F80AB0B3F804A0A1F808A093F902A0BAF1000F0BDAB9F1010F0CBF4FF007094FF00D0981F8059081F801E0C2
:4022800009E0B9F1010F0CBF4FF005094FF0090981F805904F704FEA02191A4906FB0282494481F802E0B2F808A0CAF3072A81F800A0B2F808A05FFA8AFA81F801A0B2F8D5
:4022C00006A011495FFA8AFA494481F806A0B2F80690C9F3072981F80790B2F806905FFA89F981F80490D288C2F307224A71083394E7BDE8F88F00BF9981FF1FA081FF1FE6
:402300009581FF1FFC5F0040706000408681FF1F08B5064B18780138C0B2FFF753FF20B143681B7900EBC300406908BD9981FF1F00212DE9F84F0B464C4E0C2707FB01F510
:4023400001317219092973554FF000049370474DD3701381937253705371EFD118B1444B1C70444B1C70444B1A78002A7BD0187801240138C0B2FFF725FFA0464368DFF832
:40238000F0E0DB790C2713F0400F3C4B4FF0000C1A7814BF42F0010202F0FE021A70027AD20007FB0451C36803EB02094B4531D093F802A00AF07F06A64229D10E89B3F862
:4023C00004B0B6B25E4538BFA1F808B01E7893F801B01EF80660B3451AD181F804A0DE780E7093F902A0DE78BAF1000F06F0030607DA012E0CBF07260D264E7181F8018083
:4024000006E0012E0CBF052609264E7181F801C00833CBE70134092CC3D1C1680A328B1C0A440C200833934209D013F8081C13F80A4C01F07F0100FB01518C72F2E7FFF7F4
:4024400067FF0F4B0122186000230C2000FB0251CB80098901320B44092A9BB2F6D1BDE8F84FFFF76FBEBDE8F88F00BFA081FF1F8681FF1F0E82FF1F9981FF1F9781FF1F44
:402480009C81FF1F114B1B7903F07F035A1E072A19D80F490C2202FB031291781B0141F0010191700021D170517841F002015170127912F0800F074A1A4414BF8D238923D7
:4024C0009370FFF7A9BB0020704700BF00600040A081FF1FFC5F004030B4194B1A7902F07F02531E072B27D8164B0C2404FB02339978154D01F0FE0199700021D970294675
:402500001201505D114400F07F0050555A7802F0FD025A701A795B78120605D5012B01D18C7006E00D2303E0012B0CBF082309238B7030BCFFF770BB002030BC704700BFC2
:4025400000600040A081FF1FFC5F004010B50D4B0D4C21791878C9B20138C0B2FFF732FE43681B798B4201D2012909D8074A0848535CDBB24354A3780120DBB2535410BD5A
:40258000002010BD9981FF1F006000408681FF1F0E82FF1F38B5874A874913780020DBB20880180640F1878050780A2800F2FF80DFE810F05600FD00FD00FD00FD00FD0066
:4025C0000B00FD007700FD007B00D3787948012B09D17A4B1A787A4B03EBC2035B685B684B60122310E0C378022B12D18078FFF7E9FD002800F0DB8043684B604B68DA78C0
:402600004B689B7843EA02230B80BDE83840FFF723BCC378032B1FD16A4B00228478D5B2A5420BD3634A92787AB1624A664C9078247C664A844208BF134606E01C78013262
:40264000002CEFD01C782344E8E71A78002A00F0AE801A780A8018E0BDE8384000F0DEB813F0030313D0022B40F0A1800B80514B0C201B7903F07F02554B00FB02339A786D
:40268000544BD2B21A7000225A704B60BDE702220A80514A10784F4AC0B2107053704A60B3E701230B804D4BEFE701230B8013794B4A1344E9E7517801390A2977D8DFE86F
:4026C00001F037764F76067676760A7620009378444ADBB25AE0937803F0FF0153B93F4B1A7891425FD019703F4B01201870FFF71FFE58E0481EC0B2FFF764FD0028EED1CA
:4027000055E0FFF723FF002851D02A4A374913791279DBB2D2B20A70354A3149D25CCB5C9A4240D0304B01221A70FFF75DFD3AE003F00303012B2BD009D3022B37D11D4B08
:402740009B78002B33D1BDE83840FFF7C5BE194B9B78012B2BD1204A137803F0FD0315E003F00303012B13D008D3022B1FD1114B9B78E3B9BDE83840FFF784BE0D4B9B783A
:40278000012B14D1144A137843F0020313700AE0084B1A795AB998781B791649DBB2CA5C22EA0002CA54BDE83840FFF735BA002038BD00BF006000408881FF1F9481FF1FCF
:4027C00098290000662A0000E22A00005C2A0000A081FF1F7D81FF1F9781FF1F9981FF1F8681FF1F8481FF1F9881FF1F9581FF1F0E82FF1F9B81FF1F034B00201A7812067A
:4028000048BF5B78704700BF00600040024B1878C0F38010704700BF8F4500400F4A137803F00303012B0AD0022B0DD113790C2103F07F020A4B01FB02339B7A00E01379DC
:40284000DBB2012B08D800E00023064A1268D35C032B01D1FFF7F6BB0020704700600040A081FF1F9C81FF1F014B1868704700BF4481FF1F0E4B70B51E460E4C0025E41AA7
:40288000A410A54204D056F8253098470135F8E700F032F9084B094C1E46E41AA4100025A54204D056F8253098470135F8E770BD042B0000042B0000042B00000C2B0000D1
:4028C00010B5431E0A44914204D011F8014B03F8014FF8E710BD03460244934202D003F8011BFAE770470000002C0000D700000000000000970100008F01000087010000D9
:402900007F0100007A0100007A0100007A0100007A0100006881FF1F6881FF1F6881FF1F6881FF1F6881FF1F6881FF1F6881FF1F6881FF1F6881FF1F6881FF1F6881FF1FDE
:402940006881FF1F6881FF1F6881FF1F6881FF1F6881FF1F6881FF1F2F070000270700001F0700009F0600001F0600009F0500001F0500009F0400001F0400009F030000A9
:402980001F0300009F0200001F0200009F0100006910162E003C010101000000A029000001000000E22A0000000000000000000001000000B829000001000000B92A0000FB
:4029C00002000000DA29000001000000EC29000000000000D8290000030000000103400003000000820340000300000001000000F429000000000000282A00000000000039
:402A00001C2A0000000000000000000001000000342A000001000000CB2A0000410000005B82FF1F9C82FF1F410000001A82FF1F1682FF1F240005010900A1000900A10054
:402A40000900150025FF7508954091020900150025FF750895408102C0C000000A033000300030003100040309042C034300790070007200650073007300200053006500C6
:402A80006D00690063006F006E0064007500630074006F0072002203500053006F0043003300200042006F006F0074006C006F00610064006500720000090229000101025F
:402AC000800109040000020300000209211101000122240007050103400001070582034000011201000200000008B4041DB701300102800143000000F8B500BFF8BC08BC16
:402B00009E4670475D070000250A0000F8B500BFF8BC08BC9E46704739070000302B0000C880FF1F80000000580100000000000000000000E8280000EC2800000000C05DCD
:402B400080BB000030000000006CDC020000000000000000000000000000000000000000000000000000000000000000F42A00000000000000000000000000000000000082
:402B80000000000000000000000000000000000000000000000000000000000000000000000000000000000000000000E480FF1F0000000000000000000000000000000093
:402BC00000000000000000000000000000000000000000000000000000000000000000000000000000000000000000000000000000000000000000000000000000000000D5
:402C000000800020112C0000353700003537000008B500F0ADFD000010B5054C237833B9044B13B10448AFF300800123237010BD8081FF1F0000000020690000084B10B526
:402C40001BB108490848AFF300800848036803B910BD074B002BFBD0BDE81040184700BF000000008481FF1F20690000C880FF1F000000004F2838B50D4636D006D8412810
:402C800058D344281BD9492825D053E0532839D008D851284ED1084600F04AFA80B200F0B7F945E0542837D05A2843D1084600F03FFAC1B2C0F3072000F08EF838E0413897
:402CC000C4B2204600F0D8F8A0B32946204600F0D9F868BB2EE0084600F02AFAC4B2204600F0CAF830B3012108E0084600F020FAC4B2204600F0C0F8E0B10021204600F05D
:402D00001FF915E0084600F013FAC4B2204600F0B3F878B1012108E0084600F009FAC4B2204600F0A9F828B10021204600F03AF9002038BD4FF0FF3038BD0000482810B5B3
:402D400024D003D84138032807D928E0502820D05A2824D102F012F924E0C4B2204600F011F908B1104800E0104800F029FA204600F044F908B10E4800E00E4800F020FA04
:402D8000204600F0D3F800F001FA0BE000F03CF808E000F06DF8142100F0CEF902E04FF0FF3010BD002010BD24690000286900002D6900003569000008B562B600F036F97F
:402DC00000F0A2F90249034800F02CFAFAE700BF752C00003D2D000038B504460D46A4B202F0DBF8052002F071F802F03FF92146284602F0D7F8204602F024F9044602F05B
:402E0000CEF8204638BD000000B5114893B000F0D7F9104800F0D4F90F4A40211378527802A800920D4A03F0AFF802A800F0C8F90B4800F0C5F90B4800F0C2F90A4800F073
:402E4000BFF90A4800F0BCF913B05DF804FB00BF3D690000536900009C81FF1F676900006D6900008169000053CA00008D690000004870479E81FF1F03288CBF002001209A
:402E8000704700002DE9F34140F6B47705468846244E002407FB00678DF8064018F81420A1B26AB940F6B47040F69C721E4B00FB0533A3F8B61F0B1F9BB2934211D92AE029
:402EC00008EB44035B78002BECD08DF804200021102201A88DF8053003F00EF938550134DCE7032D19D8DFE805F002070C1100FB056002F003FD10E000FB056002F05AF916
:402F00000BE000FB056002F0CDF806E000FB056002F014FA01E0002000E0012002B0BDE8F08100BFB281FF1F9C81FF1F40F6B473024A03FB0020B0F8B60F70479C81FF1F0E
:402F400069B103281DD8DFE800F00204060801200CE001200DE001200EE001200FE003280FD8DFE800F00205080B002002F0F6BD002002F0FFBD002002F002BE002002F0B8
:402F800005BE704708B5032809D8DFE800F00202020202F0E9FD003018BF012008BD002008BD000040F6B473134A03FB002383F8B81F69B103281DD8DFE800F00204060833
:402FC00001200CE001200DE001200EE001200FE003280FD8DFE800F00205080B002002F067BC002002F066B9002002F081B9002002F024BA704700BF9C81FF1F40F6B47304
:40300000024A03FB002090F8B80F70479C81FF1F10B501288CBF04460224200A02F092FDE0B2BDE8104002F093BD000038B501F0B4FF052001F04AFF02F018F8002002F0C4
:4030400001F8304D00242870012001F0FBFF023505F8010C04F1100080B201F0F3FF28550134142CF6D101F09AFF0220FFF7D0FF002002F073FD002002F07CFD002002F06E
:403080007FFD002002F082FD02F09AFC022002F0E9FC02F0FBFC032002F042FD02F0FAFB012002F005FC02F0E9F8022002F0CEFA02F0E0FA032002F027FB02F0EDF80120A0
:4030C00002F0F8F802F052F8022002F00BFA02F01DFA032002F064FA02F0FCF8012002F007F902F08FF9022002F064FB02F076FB032002F0BDFB02F093F9BDE8384001204B
:4031000002F09CB99C81FF1F08B50121002000F09BFC00F0D7FC0028FBD000F0CDFC0028FBD000F06BFE00F007FF0028FBD008BD1022002102F0E0BF40292DE9F04107463D
:403140000E461DD800F0B8FCD0B100F0F5FE0028FBD03D46DFF830804024EB1B9E420ADDC4F14000214615F8013B064A404402F00BFF023CF1E70448BDE8F04100F076BEFF
:40318000BDE8F0819669000082C0FF1F10B5044600F092FC70B100F0CFFE0028FBD02346054A4021054802F0EFFEBDE81040034800F05CBE10BD00BF6A69000082C0FF1FEE
:4031C00010B5044600F078FC70B100F0B5FE0028FBD02346054A4021054802F0D5FEBDE81040034800F042BE10BD00BF9B69000082C0FF1F08B9024800E00248FFF7E0BF90
:403200009E690000A169000008B500F055FC40B100F092FE0028FBD00D20BDE8084000F06FBE08BD2DE9F84F82468B4600F04AFC20B100F041FC08B100F0E0FD00F03CFC47
:40324000002859D000F06EFE002855D02B4800F07DFE2B4E814637460025ABB299454BD9264B96F8C82EEB5CA2B9264A12681A44527892073ED0A3F16102192A9CBF203BF5
:40328000DBB287F8C93E012387F8C83E1E4A1F4B1A602FE00D2B1CD11D4CDFF87080E343D8F800201344002B03DC96F8C90ED04705E000231370611C96F8C90ED847FFF72D
:4032C00099FFFFF7A1FF002387F8C83EC8F8004010E00C4A12681A44527812F0440F09D00A480B490268511AB1F5FC5FBCBF02F8013B02600135B0E7BDE8F88FC2C0FF1FBA
:403300007AD1FF1F1481FF1F44E0FF1FCC80FF1F43E0FF1F0A46002102F02EBE012810B512D80A4A4000C0B252F8201013180C781B7C23430B70431CD8B252F820101044FF
:40334000037C0A7813430B7010BD00BFA8690000012810B514D80B4A4000C0B252F8201013181C7C0B7823EA04030B70431CD8B252F8201010440B78027C23EA02030B7069
:4033800010BD00BFA8690000012808D8044B03EB8002526918441178037F0B4313707047A8690000012809D8054B03EB800252691844017F137823EA01031370704700BFF7
:4033C000A8690000012810B516D80C4A4000C0B202EB8003196A13180C7893F8303023430B70431CD8B202EB8003196A104490F830300A7813430B7010BD00BFA869000062
:40340000012810B518D80D4A4000C0B202EB8003196A131893F830400B7823EA04030B70431CD8B202EB8003196A10440B7890F8302023EA02030B7010BD00BFA8690000C5
:40344000012809D8054B03EB8002526B1844117890F83C300B431370704700BFA869000001280AD8054B03EB8002526B184490F83C10137823EA010313707047A8690000F5
:40348000F8B572B68A4B61221A70A3F5F0638F221A8018229A70062283F88022522203F5C0731A70834B844A1B78844EDBB2137040F62A52824B19251A8042F2512200243A
:4034C00023F8022C33784FF4F07003F0010343EA440402F061FB013D04F003041FD0032CF0D1784B4FF480721A8007221A70764A002448211470917002221C705C7103F8D4
:40350000032C724A724D1378062643F00103137092F8463343F0040382F8463300E0FEE706FB04530134B3F84210D3F83E00FFF7F1FE072CF4D1664A664BD26E664C106840
:40354000186092889A8000221046830003F19043E15804EB420321F0FF05C9B20A4404EB420103F1904301F190417D337F3102338B4205D013F8036C13F8027C7755F6E7F3
:4035800001301F28E1D104215448FFF7C3FE04215348FFF7BFFE04215248FFF7BBFE04215148FFF7B7FE04215048FFF7B3FE04214F48FFF7AFFE04214E48FFF7ABFE0421DD
:4035C0004D48FFF7A7FE04214C48FFF7A3FE04214B48FFF79FFE04214A48FFF79BFE4A4A4A4D13784A4C43F002031370137C43F0020313742B78A2F5863243F040032B7062
:40360000413A137843F010031370424B03CBC2F8400DC2F8441D93E8070003C4228003F10C0203CA03F1140244F8E60C44F8E21C03CA394A44F8D60C44F8D21C1C3303CB5D
:40364000A2F56162C2F8100EC2F8141E1378A4F6486443F008031370304B02F5AA521B780C32DBB203F007011B09117053702C4BF0221A70082283F87529022283F87D29D0
:40368000284A042313701372274B284AA3F2CA23C3F8CA22264AC3F8CE22C02283F8E22244221A7095E80F0007C42380F8BD00BF004800400F010049A146004025420040D3
:4036C000224200400440004006400040A2430040A8690000105101408005000000760040507600400876004010760040187600402076004028760040307600403876004029
:40370000407600404876004003500140A0430040F0510040180C004832510040CF0100490D510040925A0040405B0040080106010701070108B502F0F3FB03680C2B00D140
:40374000FEE7FEE7084908B50B68084A1844821A802A01DC086005E002F0E2FB0C2303604FF0FF33184608BDD080FF1FD000002080B51148114B0025C0B1A3F1100192C90D
:4037800022460439161BB74204D051F8046F42F8046BF7E7114653F8046C8C1AA64202D041F8045BF9E701381033E5E702F0BEFBFFF702FBFEE700BF01000000A8CA00003C
:4037C000124A134B10B51A60124A134C1368134843F4007313600023032B98BF54F823204FEA830188BF0E4A0133302B4250F3D10C4B1A780C4B1A700C4B084A1A60FFF7C7
:403800003FFEBDE8104001F08BBA00BF0004FA050CED00E014ED00E0002C00000080FF1F35370000BC760040C080FF1F08ED00E0F8B502F0B9F9474A01271378022643F0D9
:4038400001031370137C444C43F001031374434B02F5E3521F700B3203F8946C1378054603F07F031370002001F030FB23783C4A03F0F90323701378384603F0DF03137055
:4038800023783B43237001F021FB282001F01EFB344B30461A7802F07F021A701A7802F0BF021A7023783343237001F00FFB23782D4A43F0040323700023137053702B4A4E
:4038C000FF2199540133092BFBD1284602F070F90721172001F010FB2549172001F0FEFA0721182001F008FB2249182001F0F6FA0721152001F000FB1F49152001F0EEFA3E
:403900000721002001F0F8FA1C49002001F0E6FA0721012001F0F0FA1949012001F0DEFA0721022001F0E8FA1649022001F0D6FA0021162001F0E0FA1349162001F0CEFACA
:4039400007210C2001F0D8FABDE8F8400F490C2001F0C4BAA5430040944300409D60004012600040F851004084600040F5FFFF1F83440000AD42000081440000ED430000C8
:40398000194400004944000089440000FD44000008B5204B204A1870002313701F4A072013701F4A13701F4A13701F4A13701F4A13701F4A13701F4B4FF400021A604FF038
:4039C00080721A604FF400121A6001221A6002221A6004221A60184A10704FF480021A60164B20221A70933B19B91A7802F0FE0202E01A7842F001021A70114B03221A7001
:403A0000802203F8202C012002F0C6F80D4B04221A7008BD11000020140000202C0000202F000020240000202E000020310000201000002000E100E09E6000409C600040B1
:403A4000286000401260004070B5074C054623780E461BB9FFF7ECFE0123237031462846BDE87040FFF794BFC3FFFF1F0A4A002313700A4A13700A4A13700A4A13700A4A79
:403A800013700A4A13700A4A13700A4B03221A70802203F8202C7047140000202C0000202F000020240000202E000020310000201000002028600040014B1878704700BF35
:403AC0002F000020044B1A7802F0FF001AB118780022C0B21A7070472C000020024A0C2303FB00204078704732000020431E072B0CD8074A064B00010344805C5B7800F0CF
:403B00000F0043EA0020023880B2704700207047FC5F0040194A10B50C2303FB00231B79090C13F0800F19BF8AB24FF480438BB24FF48042022804460AD003280FD0012804
:403B400013D10021084601F0C7F80D4B58700CE00021084601F0A4F8094B987005E00021084601F081F8064BD870631E072B03D801F06AF9034B185510BD00BF320000200C
:403B8000ECFFFF1FF5FFFF1F431E072B2DE9F0470446894615465CD82F4F0C2202FB0072D388DFF8B8A09BB2C3F500739D424FF00C0303FB007388BFD588DB7884BFC5F5B3
:403BC0000075ADB2254A43EA15230601B354B244EBB28AF80130224B1A5C9846FF2A01D1FFF798FF0C2303FB047200215170B9F1000F28D03DB31B4F385D01F0BDF8112381
:403C00002946FE2218F8040001F038F906F5C04278321FFA89F118F8040001F041F9124D18F80410385D01F0E3F80121385D01F08DF8735D43F002037355735D03F0FD03A2
:403C40007355BDE8F08703FB04746379DBB28AF80230BDE8F08700BF32000020FC5F0040F5FFFF1FECFFFF1F706000402DE9F047044615468846002940D0431E072B3FD837
:403C8000FFF734FFA84203D22046FFF72FFF05461D4E335DFF2B03D141462046FFF73AFFDFF868A027011AF8040001F065F81223FE222946305D01F0E1F807F5C0411FFA96
:403CC00088F27831305D01F0EBF8DFF84490315D1AF8040001F08CF801211AF8040001F035F817F8093043F0020307F8093017F8093003F0FD0307F8093002E00D4600E0E6
:403D000000252846BDE8F087F5FFFF1FECFFFF1F70600040431E072B0AD8064A0C2303FB002300225A705A79034BD2B200011A54704700BF32000020FE5F004070B5094CB5
:403D4000094DFF2100230C26E25C06FB0252927A824204BF194602230133DBB2012BF3D0084670BD020000203200002010B51E4C2079FFF7E3FF237813F0800F63780DD0AA
:403D8000212B2ED1BDE81040184B07221A80184AC0EBC0001044586000F0DEBADBB2202B0ED0222B1DD1A378124A22F81030124A135C43F002031354BDE8104000F0ACB9C6
:403DC0000A4A07230A491380C0EBC0030B445360094A135C43F001031354BDE8104000F0E1BA002010BD00BF0060004018000020D480FF1F0A000020FEFFFF1F10B5164AAF
:403E000000231370154A164C137053702078C0B2431E072B01D8FFF77DFF6078C0B2431E072B01D8FFF776FF0E4A13788BB123787BB10D4B197861B11278082A09D8084AFC
:403E40001278082A05D81878082894BF0020012010BD012010BD00BFC4FFFF1FFEFFFF1F0400002000000020020000202DE9F84F8346204B204A1B78D75C0023FFB29CB296
:403E80001BF804500133002DF9D12E464FF00C0808FB07F8194B03EB0809B9F808300BEB06019BB29C4294BF2546B9F80850384688BFADB2641B2A46A4B2DFF840A0FFF756
:403EC00063FE2CB90AEB08031B899BB29D420FD13544AEB2C2449AF80130002BFBD0002CDBD1224621463846BDE8F84FFFF74CBEBDE8F88FC4FFFF1F0000002032000020A4
:403F000007B5064B064A1B7802A901F8010DD05C0122FFF739FE03B05DF804FBC4FFFF1F00000020024B034A1B78D05CFFF7D6BDC4FFFF1F04000020024B034A1B78D05C1B
:403F4000FFF7CCBDC4FFFF1F0000002038B50D4B0D4A1B780146D45C0C4AE4B20C2303FB04231A89204692B2FFF780FE05462046FFF7B4FD0128FAD02046FFF7CBFE28463C
:403F800038BD00BFC4FFFF1F0400002032000020C37890F9020003F0030300280FDA032B15BF0C480C4802F00103C2F3800319BFC15442F00102C15442F0040207E0032BCA
:403FC0001FBF0648C2F34003C15442F002021046704700BF00000020020000200400002030B51A4A1A491B4D0878138803449BB21380194A00231488D8B2A4B27CB1082B68
:404000000CD050680078C0B2E85450680133013050601088013880B21080ECE718460B780E4C082B0E4A00D040B10E4D2B7883F080032B700F232370022301E002232370FA
:404040001370094B1870087030BD00BF120000201000002000600040180000202D00002014000020A000002030000020074B02221A70074B80221A70064B0F221A70064A18
:4040800000231370054A01201370704714000020A00000202D000020100000203000002030B5164B16491B780A8803F00F03023BDBB21A4492B20A80124C134A00201188B6
:4040C00089B279B173B15568215C013BC9B229705168DBB20131516011880130013989B21180ECE7094A1370094A137883F080031370084B0B221A7030BD00BF2960004035
:4041000012000020006000401800002030000020A00000202D000020064A06231370064A01201370054B80221A70054B00221A70704700BF140000202D000020A0000020F9
:4041400030000020054B9A683AB19A68044910709A680988518000229A607047180000201200002008B5124B1A78D2B21A701B78DBB21A0602D50F4A137008BD0220FFF7B8
:40418000E1FF0D4B1B7803F06003202B05D0402B06D043B900F02AFC04E001F00DFD01E000F058FD10B9034B03221A7008BD00BF286000402D0000200060004008B5084A58
:4041C000084B0120197813880B449BB21380064B00221A70FFF7B6FF044B03221A7008BD1200002010000020140000202D00002008B50C4B1B78DBB2042B07D0062B09D05E
:40420000022B0DD1BDE80840FFF7D8BFBDE80840FFF746BF0320FFF795FF034B03221A7008BD00BF140000202D00002008B5054B002201201A70FFF785FF034B03221A7011
:4042400008BD00BF140000202D00002008B50A4B1A7832B11A78094942F080020A7000221A70074B002201201A70FFF76BFF054B03221A7008BD00BF2E00002008600040FC
:40428000140000202D000020074B1B78DBB2042B05D0062B05D0022B05D1FFF7A1BEFFF7C5BFFFF7D3BF70471400002038B51D4C2378DBB2DD0634D518060AD503F00F0350
:4042C000012B2ED1FFF74EFF174B1B78190609D538BD5A0602D5FFF7D7FF03E09D0620D5FFF786FF23781B061BD4104B1A78104B1B7813430F4A13701278934211D10A4A23
:404300000849154613782078DBB2000605D41378DBB20B700B7803F00F0328788342F1D138BD38BD286000402D000020A00000203000002029600040054A00231380054AD4
:40434000916819B191680B7092685380704700BF12000020180000200E4808B503889BB213B9FFF783FE13E00B4B02221A700B4B00221A70FFF7E0FF094AD179937902882A
:4043800043EA012392B2934238BF0380FFF728FE012008BD1800002014000020A00000200060004008B50C4B04221A700B4B80221A70FFF7C1FF0A4A0120D179937943EA57
:4043C000012308490A8892B2934238BF0B80064B0B221A7008BD00BF14000020A000002000600040180000202D000020084B01221A700F3B9B7C074B1A7B02F00302012A0C
:404400001EBFDA7B82F08002DA7301225A7370470B60004032000020094B02221A700F3B93F82230074B1A7E02F00302012A1EBFDA7E82F08002DA7601225A76704700BF4E
:404440000B600040320000200B4B04221A700F3B93F83230094B93F8242002F00302012A1EBF93F8272082F0800283F82720012283F82520704700BF0B6000403200002002
:404480007047FFF7F3BA0000F0B5184B184E19780C27C9B201234FF0000C31B3CA0720D5144A4FEA031E7244947850782040C5070DD507FB03652C79240608D5147804F0F6
:4044C000FE0414706D790C4CEDB204F80E50840706D507FB036425792D0658BF84F801C090700133DBB24908D7E7F0BD9F6000403200002070600040FE5F004000F008BC9C
:4045000070B50446184B88B003AA03F11006154618685968083303C5B3422A46F7D11B782B70FCB12223237001AD03232846637000F0ECFC002220461146AB5C08AC04EBC5
:40454000131414F8144C03F00F03847008AC234413F8143C0132082AC1700371417100F10400EAD108B070BD1A6A00002DE9F0431C4D01222E460C201F274FF0800E4FF09D
:40458000080C194B00FB02581401234418705F70164998F805902144B9F1000F07D098F8044024064CBF887081F802C001E081F802E000FB0261CC880132E4B29C71CC888E
:4045C000092AC4F30724DC71CC88E4B21C71C988C1F307215971D4D1054BFF221A70BDE8F08300BF3200002070600040FC5F00400A600040064B074A1B7802EBC30253682B
:404600001A7C824286BF03EBC00358690020704711000020F4C700002DE9F84F424B1A78002A7ED01878414D0138C0B2FFF7E2FFA8463F4AC3681478007ADFF800C1E4B23C
:4046400003EBC0000C2600274FF0010E834268D01A78A24263D11CF80420597891425ED19A7893F8039002F07F0206FB02FA05EB0A01CF7093F802B009F0030981F804B0EA
:4046800093F803B005F80AB0B3F804A0A1F808A093F902A0BAF1000F0BDAB9F1010F0CBF4FF007094FF00D0981F8059081F801E009E0B9F1010F0CBF4FF005094FF009090B
:4046C00081F805904F704FEA02191A4906FB0282494481F802E0B2F808A0CAF3072A81F800A0B2F808A05FFA8AFA81F801A0B2F806A011495FFA8AFA494481F806A0B2F84A
:404700000690C9F3072981F80790B2F806905FFA89F981F80490D288C2F307224A71083394E7BDE8F88F00BF2F0000203200002024000020FC5F0040706000409E000020DD
:4047400008B5064B18780138C0B2FFF753FF20B143681B7900EBC300406908BD2F0000202DE9F74F00210B46564E0C2707FB01F501317219092973554FF000049370DFF8BC
:404780004491D3701381937253705371EED128B14D4A4E4B14701C7054705C704C4B1A78002A00F08C80187801270138C0B2FFF721FF80464368057ADB79ED0013F0400F0E
:4047C000444B4FF0000C1A784FF00C0A14BF42F0010202F0FE021A700AFB0796D8F80C40FBB204EB050B5C453AD0A07800F07F01B94233D13189B4F804E089B2714538BFA6
:40480000A6F808E02178304A94F801E0515C8E4524D13071E178317094F90200E178002801F0030106DA01290CBF07210D217171012105E001290CBF052109217171002101
:404840007170A17901F0F701022907D16246194620460193FFF79CFB8446019B0834C2E70137092FB8D1D8F80C200A35931C15440C210833AB4209D013F8082C13F80A0CAE
:4048800002F07F0201FB02929072F2E7FFF758FF114B0121186000230C2000FB0192D3801289013113449BB203F00102134409299BB2F2D103B0BDE8F04FFFF757BE03B052
:4048C000BDE8F08F320000209E000020150000202F0000203100002028000020114B1B7903F07F035A1E072A19D80F490C2202FB031291781B0141F0010191700021D17015
:40490000517841F002015170127912F0800F074A1A4414BF8D2389239370FFF7FDBB0020704700BF0060004032000020FC5F004030B4194B1A7902F07F02531E072B27D8FB
:40494000164B0C2404FB02339978154D01F0FE0199700021D97029461201505D114400F07F0050555A7802F0FD025A701A795B78120605D5012B01D18C7006E00D2303E02C
:40498000012B0CBF082309238B7030BCFFF7C4BB002030BC704700BF0060004032000020FC5F004010B50D4B0D4C21791878C9B20138C0B2FFF71EFE43681B798B4201D287
:4049C000022909D8074A0848535CDBB24354A3780120DBB2535410BD002010BD2F000020006000409E0000201500002038B5884A884C13780021DBB221801806517840F1A6
:404A000088800A2900F20181DFE811F05800FF00FF00FF00FF00FF000B00FF007900FF007D00D3787A49012B09D17B4B1A787B4B03EBC2035B685B686360122310E0CB7817
:404A4000022B12D18878FFF7D5FD002800F0DD80436863606368DA7863689B7843EA02232380BDE83840FFF777BCCB78032B21D16B4B00228878D5B2854203D3644A92782E
:404A80003AB910E0187801320028F7D018780344F0E75F4A63499278097C914203D16248FFF72EFD604B1A78002A00F0AE801A78228018E0BDE8384001F07EB813F003035F
:404AC00013D0022B40F0A1802380514B0C211B7903F07F02554B01FB02339A78544BD2B21A7000225A706360BBE702222280514A11784F4AC9B2117053706260B1E7012340
:404B000023804D4BEFE70123238013794B4A1344E9E701390A2978D8DFE801F037774F77067777770A7720009378454ADBB25AE0937803F0FF0153B93F4B1A78914260D0D6
:404B40001970404B01201870FFF70AFE59E0481EC0B2FFF74FFD0028EED156E0FFF722FF002852D02A4A384913791279DBB2D2B20A70364A3149D25CCB5C9A4241D0314B5A
:404B800001221A70FFF748FD3BE003F00303012B2BD009D3022B38D11D4B9B78002B34D1BDE83840FFF7C4BE194B9B78012B2CD1204A137803F0FD0315E003F00303012BDE
:404BC00013D008D3022B20D1114B9B78EBB9BDE83840FFF783BE0E4B9B78012B15D1154A137843F0020313700BE0094B1A79012A0BD898781B791649DBB2CA5C22EA0002AB
:404C0000CA54BDE83840FFF787BA002038BD00BF006000401800002011000020F4C7000058C800003AC90000A300002032000020C5FFFF1F310000202F0000209E000020F2
:404C40002E0000202C0000202400002015000020A1000020034B00201A78120648BF5B78704700BF00600040F7B516461F460B4C00230225019300930A4601462846257089
:404C800000F0C2F83A463146207800F099F82946207800F083F8207803B0F0BDEC80FF1FF7B516461F460B4C00230125019300930A4601462846257000F0A6F83A463146F3
:404CC000207800F07DF80221207800F067F8207803B0F0BDED80FF1F73B515461E460B4C0023019300930A4601461846237000F08BF832462946207800F062F80221207823
:404D000000F04CF8207802B070BD00BFEE80FF1F024B1878C0F38010704700BF8F450040074A7F23802113705170064A013BDBB202F80839002BF9D1034A1370704700BF6C
:404D4000F080FF1FF87B00400078004017280FD8084B0001C25C11B142F0200201E002F0DF02C254C25C42F00102C25400207047012070471070004017280BD8064B000176
:404D8000C25C02F0FE02C254C25C02F0DF02C25400207047012070471070004017280BD8064A0001835C490003F0F10301F00E011943815400207047012070471070004035
:404DC00041F6FF73994208BF4FF400519A4208BF4FF4005217289FBFC00000F1804000F5EC4081809ABFC280002001207047000017289FBF034B00011954002088BF0120F8
:404E0000704700BF19700040172810B51AD8C00001F07F0100F1804441EAC21204F5EC44D2B222709DF8082003F00F0343EA0213DBB263709DF80C30002003F00F03A370AC
:404E4000E07010BD012010BD10B500F0ADFE0A4A5378182B0AD91478013B5370E30003F1804303F5F0431B78137000E0FF2400F09FFE204610BD00BFF080FF1F30B504061D
:404E80000CD411F4704509D1C40004F1804404F5F0442180A270E370284630BD012030BD03065FBFC00000F1804000F5F04081805ABFC2800020012070470000024A13787D
:404EC00043F0010313707047F6460040024B1B7A584300F061BE00BFF880FF1F054A00F01F00126800F1100352F8230042F82310704700BF08ED00E000F01F0000F1604043
:404F0000490100F56440C9B201707047134B144A1B78DBB20360127843EA0223114A0360127843EA0243104A0360127843EA026303600E4B0E4A1B78DBB24360127843EAAF
:404F400002230C4A4360127843EA02430A4A4360127843EA02634360704700BF0301004904010049EC4600400201004901010049000100490501004906010049024B4022AF
:404F80001A70FFF79BBF00BFFA46004008B500F05DFEBDE8084000F087BEFFF7F7BF00F0ABBE000037B50C468DF8070000F0CAFEB4F5006F24D200F065FF18BB04F00F01EE
:404FC00001230DF10702402000F0ECFE07284FEA141504460FD1194A1378184C13F0020FFAD02378980702D44FF0FF3405E023789B0809D0F8E70128F6D100F063FF1AE0C8
:40500000012418E0042416E00D4A294653784020127800F0FDFE0728E6D12278074B9107FBD51A789207DFD51B789B0814BF4FF0FF340024E1E7204603B030BD22470040A0
:40504000C500002038B5044600F0AEFD054600F065FE04F1804303F500431C7800F06AFEE4B2284600F0A4FD204638BD08B500F0EDFDC0B208BD000010B5094C00F026FA14
:4050800000F07AFA01212078FFF760FE60780121FFF75CFEBDE81040002000F031BA00BFC7FFFF1F70B50E4601210546020C4FF48043084600F0D2F9094C3146A278207028
:4050C00001231046FFF7DAFEA9B2A07845F68232FFF7E6FEA1782078BDE87040FFF788BEC7FFFF1F70B50E4601210546020C4FF48043084600F0CEF9094C3146E278607011
:4051000001231046FFF7BAFEA9B2E07845F68232FFF7C6FEE1786078BDE87040FFF768BEC7FFFF1F10B500F011FA022000F0DAF9042000F0FDF900F041FAFFF785FE094CBD
:40514000A070FFF781FEE070074C4FF47A612046FFF7A8FF4FF47A616018BDE81040FFF7C1BF00BFC7FFFF1F2B6A000010B5054C23791BB9FFF7D6FF01232371BDE81040AF
:40518000FFF77ABFC7FFFF1F10B5094C00F052FA00F0A6FA01212078FFF7D8FD60780121FFF7D4FDBDE81040002000F05DBA00BFCCFFFF1F70B50E4601210546020C4FF4B5
:4051C0008043084600F0FEF9094C3146A278207001231046FFF752FEA9B2A07845F68132FFF75EFEA1782078BDE87040FFF700BECCFFFF1F70B50E4601210546020C4FF4F4
:405200008043084600F0FAF9094C3146E278607001231046FFF732FEA9B2E07845F68132FFF73EFEE1786078BDE87040FFF7E0BDCCFFFF1F10B500F03DFA022000F006FA11
:40524000042000F029FA00F06DFAFFF7FDFD094CA070FFF7F9FDE070074C4FF47A612046FFF7A8FF4FF47A616018BDE81040FFF7C1BF00BFCCFFFF1F6B89000010B5054CE8
:4052800023791BB9FFF7D6FF01232371BDE81040FFF77ABFCCFFFF1F08B50020FEF782F80120FEF77FF8024BFF221A7008BD00BF0881FF1F38B5064B054618781C46FF2850
:4052C00001D0FEF76FF82846FEF75EF8257038BD0881FF1F08B50020FEF792F80120FEF78FF8024BFF221A7008BD00BF0981FF1F38B5064B054618781C46FF2801D0FEF712
:405300007FF82846FEF75EF8257038BD0981FF1F10B5094C00F042FA00F096FA01212078FFF714FD60780121FFF710FDBDE81040002000F04DBA00BFD1FFFF1F70B50E4655
:4053400001210546020C4FF48043084600F0EEF9094C3146A278207001231046FFF78EFDA9B2A07845F68332FFF79AFDA1782078BDE87040FFF73CBDD1FFFF1F70B50E46CA
:4053800001210546020C4FF48043084600F0EAF9094C3146E278607001231046FFF76EFDA9B2E07845F68332FFF77AFDE1786078BDE87040FFF71CBDD1FFFF1F10B500F072
:4053C0002DFA022000F0F6F9042000F019FA00F05DFAFFF739FD094CA070FFF735FDE070074C4FF47A612046FFF7A8FF4FF47A616018BDE81040FFF7C1BF00BFD1FFFF1FEC
:40540000ABA8000010B5054C23791BB9FFF7D6FF01232371BDE81040FFF77ABFD1FFFF1F08B50020FEF71CF80120FEF719F8024BFF221A7008BD00BF0A81FF1F38B5064B8E
:40544000054618781C46FF2801D0FEF709F82846FDF7F6FF257038BD0A81FF1FF7B516461F460B4C00230725019300930A46014628462570FFF7C8FC3A4631462078FFF764
:405480009FFC02212078FFF789FC207803B0F0BD0B81FF1FF7B516461F460B4C00230825019300930A46014628462570FFF7ACFC3A4631462078FFF783FC02212078FFF751
:4054C0006DFC207803B0F0BD0C81FF1F044A137843F004031370137C43F0040313747047A8430040054B00F002001A7802F0FD021A701A7810431870704700BF28580040E6
:40550000014B1870704700BF825B0040064B074A1B78C3F3810303F19243063393F82831DBB21370704700BF285800400A460040054B00F00C001A7802F0F3021A701A78F8
:4055400010431870FFF7E2BF2858004008B5084B0020084A18705870137843F008031370FFF7E6FFBDE808400220FFF7BBBF00BF28580040975A0040084A137843F060035E
:405580001370A2F5A652133A137843F004031370137C43F004031374704700BF77580040054B00F003001A7802F0FC021A701A7810431870704700BF5C5800400220FFF731
:4055C000EFBF0000F7B516461F460B4C00230525019300930A46014628462570FFF714FC3A4631462078FFF7EBFB02212078FFF7D5FB207803B0F0BD0D81FF1FF7B516468D
:405600001F460B4C00230625019300930A46014628462570FFF7F8FB3A4631462078FFF7CFFB02212078FFF7B9FB207803B0F0BD0E81FF1F044A137843F002031370137C3A
:4056400043F0020313747047A8430040054B00F002001A7802F0FD021A701A7810431870704700BF24580040014B1870704700BF815B0040064B074A1B78C3F3810303F1D2
:405680009243063393F83031DBB21370704700BF2458004009460040054B00F00C001A7802F0F3021A701A7810431870FFF7E2BF2458004008B5084B0020084A187058703E
:4056C000137843F008031370FFF7E6FFBDE808400220FFF7BBBF00BF245800408F5A0040084A137843F060031370A2F5A652133A137843F002031370137C43F002031374FA
:40570000704700BF77580040054B00F003001A7802F0FC021A701A7810431870704700BF5A5800400220FFF7EFBF0000F7B516461F460B4C00230925019300930A46014627
:4057400028462570FFF760FB3A4631462078FFF737FB02212078FFF721FB207803B0F0BD0F81FF1FF7B516461F460B4C00230A25019300930A46014628462570FFF744FB9F
:405780003A4631462078FFF71BFB02212078FFF705FB207803B0F0BD1081FF1F044A137843F008031370137C43F0080313747047A8430040054B00F002001A7802F0FD0261
:4057C0001A701A7810431870704700BF2C580040014B1870704700BF835B0040064B074A1B78C3F3810303F19243063393F83831DBB21370704700BF2C5800400B460040D0
:40580000054B00F00C001A7802F0F3021A701A7810431870FFF7E2BF2C58004008B5084B0020084A18705870137843F008031370FFF7E6FFBDE808400220FFF7BBBF00BF1A
:405840002C5800409F5A0040084A137843F060031370A2F5A652133A137843F008031370137C43F008031374704700BF77580040054B00F003001A7802F0FC021A701A7853
:4058800010431870704700BF5E5800400220FFF7EFBF000008B50020FDF75AFD0120FDF757FD024BFF221A7008BD00BF1181FF1F38B5064B054618781C46FF2801D0FDF7B7
:4058C00047FD2846FDF72AFD257038BD1181FF1F10B5094C00F0BAF800F00EF901212078FFF734FA60780121FFF730FABDE81040002000F0C5B800BFD6FFFF1F70B50E4649
:4059000001210546020C4FF48043084600F066F8094C3146A278207001231046FFF7AEFAA9B2A0784FF4B742FFF7BAFAA1782078BDE87040FFF75CBAD6FFFF1F70B50E46E5
:4059400001210546020C4FF48043084600F062F8094C3146E278607001231046FFF78EFAA9B2E0784FF4B742FFF79AFAE1786078BDE87040FFF73CBAD6FFFF1F10B500F08D
:40598000A5F8022000F06EF8042000F091F800F0D5F8FFF759FA084CA070FFF755FAE070064C04212046FFF7A9FF04216018BDE81040FFF7C3BF00BFD6FFFF1FEBC700004D
:4059C00010B5054C23791BB9FFF7D8FF01232371BDE81040FFF77CBFD6FFFF1FF7B516461F460B4C00230325019300930A46014628462570FFF708FA3A4631462078FFF736
:405A0000DFF902212078FFF7C9F9207803B0F0BD1281FF1FF7B516461F460B4C00230425019300930A46014628462570FFF7ECF93A4631462078FFF7C3F902212078FFF7D4
:405A4000ADF9207803B0F0BD1381FF1F044A137843F001031370137C43F0010313747047A8430040054B00F002001A7802F0FD021A701A7810431870704700BF205800402A
:405A8000014B1870704700BF805B0040064B074A1B78C3F3810303F19243063393F82031DBB21370704700BF2058004008460040054B00F00C001A7802F0F3021A701A7887
:405AC00010431870FFF7E2BF2058004008B5084B0020084A18705870137843F008031370FFF7E6FFBDE808400220FFF7BBBF00BF20580040875A0040084A137843F06003F9
:405B00001370A2F5A652133A137843F001031370137C43F001031374704700BF77580040054B00F003001A7802F0FC021A701A7810431870704700BF585800400220FFF7B5
:405B4000EFBF0000014B1870704700BF7A640040014B1870704700BF79640040014B1870704700BF7C640040014B1878704700BF7C640040014B1870704700BF7E64004060
:405B8000014B1870704700BF7F640040014B1870704700BF796500400230800803D000BF01380046FCD17047EFF3108072B6704780F31088704700BF0F4A137803F0030312
:405BC000012B0AD0022B0DD113790C2103F07F020A4B01FB02339B7A00E01379DBB2022B08D800E00023064A1268D35C022B01D1FEF7BCB800207047006000403200002099
:405C00002800002038B500F09DF800F03BF9C0B900F072F90728044610D10B4D2A780A4B910703D40120FFF751F9F7E71A78920704D51B789B0814BF0724002400F042F9D4
:405C400000E00424204638BD2247004070B5FFF7D9FF044610BB00F075F800F013F9E0B9012000F0F5F807280AD10D4D02210D4800F07AF802280A4E05D02B789B07F5D57C
:405C80004FF0FF3406E033789A0703D40120FFF71DF9F8E700F016F900E00424204670BD22470040C500002008B5FFF77DFF0F4A137843F008031370137C43F0080313740D
:405CC0000B4BC8221A700B4A137843F010031370137C43F01003137402F5557213789B06FCD5BDE80840FFF763BF00BFA043004001470040AC43004008B5FFF755FF064A25
:405D0000137803F0EF031370137C03F0EF031374BDE80840FFF74CBFAC430040044B1A7842F001021A701A789207FCD5704700BF02470040024A137803F0FE0313707047B8
:405D40000247004008B5FFF72FFF064A137843F008031370137C43F008031374BDE80840FFF726BFA04300402DE9F0410E464B1E0A4FDFF82C80451EC418A5420BD03B784A
:405D8000DB0703D40120FFF7A1F8F8E798F8003005F8013FF1E73046BDE8F08122470040204700403E2870B501D81F2B02E03F2823D00F2B21D8144D2C78A6071FD5134CC8
:405DC000B6262670D4262670012626702D78AD0717D42070C1F3002020701046C9B22170591EC9B22170811AC9B28B4203D910F8011B2170F7E7072070BD012070BD0420AF
:405E000070BD092070BD00BF224700402047004070B50D4D2C78A60712D50C4CB6262670D8262670052626702D78AD070AD42070080AC9B22070217022702370072070BD0C
:405E4000042070BD092070BD22470040204700400A4A137899070CD5094BB6211970E12119700E2119701278920704D4187007207047042070470920704700BF2247004050
:405E80002047004038B5FFF78FFE0C4A147874B901250B4915700B682B400AD00B6823F001030B6000BF00BF00BF556002E0042400E01C46FFF77CFE204638BDDCFFFF1F0E
:405EC0000400084010B5FFF76FFE094B00215A681970012A08D1074C226842F00102226000BF00BF00BF5960BDE81040FFF760BEDCFFFF1F04000840074B1B789B0708D52E
:405F0000064BB6221A70E0221A700D221A70072070470420704700BF2247004020470040014B1868704700BF7881FF1F0E4B70B51E460E4C0025E41AA410A54204D056F82C
:405F4000253098470135F8E706F094FD084B094C1E46E41AA4100025A54204D056F8253098470135F8E770BD80CA000080CA000080CA000088CA000003460244934202D089
:405F800003F8011BFAE770470CB430B5164B0C1E9DB01D6804DA8B232B604FF0FF301EE04FF40273ADF814300CBF234604F1FF33049307934FF6FF7302900690ADF81630B6
:405FC000209A21AB02A92846019300F0F9F8431CBCBF8B232B6014B1029B00221A701DB0BDE8304002B070477881FF1F2DE9F0470F4680463F48D0F800903D4615F8014BE7
:4060000009EB0400407800F0080000F0FF0608B12F46F2E72D2C03D1BD1C7C78012603E02B2C04BF7C78BD1C13B1102B0AD15BE0302C57D1287800F0DF0058284DD16C7847
:4060400010230235002E14BF4FF0004C6FF0004CBCFBF3FA0027384603FB1ACC09EB040E9EF801E01EF0040F01D0303C0BE01EF0030E1BD0BEF1010F0CBF4FF0370E4FF035
:40608000570ECEEB0404A34210DDB7F1FF3F0AD0504506D801D1644503DC03FB0040012701E04FF0FF3715F8014BD7E77B1C0CD1002E4FF0220314BF4FF000406FF0004091
:4060C000C8F800302AB9BDE8F08706B1404272B107B1691E1160BDE8F0873024002BB1D10823AFE70A23ADE7302CA3D0AAE7BDE8F08700BF1481FF1F13460A4601460248DE
:406100000068FFF773BF00BF7881FF1F2DE9F0478E6882469E420C46914698463ED88A8912F4906F3AD02568096902236F1A656905EB450595FBF3F57B1C43449D4238BFAE
:406140001D4653050FD5294600F04AFB064698B13A46216900F0D2FAA38923F4906343F08003A38113E02A4600F098FB064670B92169504600F0E8FA0C23CAF80030A389D7
:406180004FF0FF3043F04003A381BDE8F08726613E44266046466561ED1BA560464528BF464649463246206800F0B3FAA36800209B1BA36023681E442660BDE8F087000030
:4061C0002DE9F04F9DB003938B8980461C060D4616460DD50B695BB9402100F001FB2860286118B90C23C8F80030CDE040236B610023099320238DF82930DFF89CB13023D1
:406200008DF82A3037463C4614F8013B1BB9B7EB060910D003E0252BF9D02746F3E74B46324629464046FFF771FF013000F0A780099B4B4409933B78002B00F0A080002304
:406240004FF0FF3204930793059206938DF853301A930126052221784E4800F041FA671C049B38B14B4A3C46801A06FA00F018430490EFE7D90644BF20228DF853201A0742
:4062800044BF2B228DF8532022782A2A03D0079A00210A200BE0039A111D12680391002A10DA524243F00200079204900BE027463B780134303B092B03D800FB0232012110
:4062C000F5E701B107923B782E2B1ED17B782A2B0AD1039B02371A1D1B680392002BB8BF4FF0FF33059310E0002319460593781C0A2407463A780130303A092A03D804FB15
:4063000001210123F5E703B1059103223978224800F0E6F940B14023CBEB000003FA00F0049B013718430490397806221B487E1C8DF8281000F0D4F988B1194B33B9039BAE
:40634000073323F007030833039314E003AB00932A46144B04A94046AFF3008007E003AB00932A460F4B04A9404600F093F8B0F1FF3F824603D0099B5344099342E7AB894E
:406380005B0601D4099801E04FF0FF301DB0BDE8F08F00BF4FCA000055CA000059CA0000000000000D6100002DE9F04791461F460A698B6806469342B8BF1346C9F800306D
:4063C00091F843200C46DDF8208012B10133C9F800302368990642BFD9F800300233C9F80030256815F0060510D104F1190A07E00123524639463046C04701301AD001352A
:40640000E368D9F800209B1A9D42F1DB94F843302268003318BF012392060FD5E118302081F843005A1C94F845102244023382F8431003E04FF0FF30BDE8F08704F1430222
:4064400039463046C0470130F4D02268D9F80050E36802F00602042A08BF5D1B2269A3680CBF25EAE57500259342C4BF9B1AED184FF000091A344D4509D0012322463946C1
:406480003046C0470130D5D009F10109F3E70020BDE8F0872DE9F04317460A7E85B06E2A984606460C460C9B01F1430E00F0AE8011D8632A22D009D8002A00F0BB80582AD0
:4064C00040F0CA8081F84520834955E0642A1ED0692A1CD0C0E0732A00F0B08009D86F2A2ED0702A40F0B8800A6842F020020A603EE0752A24D0782A3AD0ADE01A6801F1E3
:406500004205111D1960136884F84230A8E021681A6811F0800F02D0111D196008E011F0400F02F10401196002D0B2F9003000E01368002B3CDA2D225B4284F8432037E094
:4065400021681A6811F0800F02D0111D196007E011F0400F02F10401196001D0138800E01368227E5C496F2A14BF0A2208221BE078225A4984F845202268186812F0800FDD
:4065800000F104051D6003D1550601D5038800E00368D00744BF42F0200222601BB9226822F0200222601022002084F8430001E049490A226568002DA56008DB206820F09B
:4065C000040020602BB9002D7DD175460CE0002B79D07546B3FBF2F002FB1033CB5C05F8013D03460028F5D1082A0BD12368DA0708D5236962689A42DEBF302305F8013CC6
:4066000005F1FF35C5EB0E0323612EE008681A6810F0800F496903D0101D1860136808E010F0400F02F104001860136801D0198000E0196000232361754616E01A68111DCB
:406640001960156800216268284600F049F808B1401B6060636804E004F1420584F8422001232361002384F84330CDF800803B4603AA21463046FFF797FE013002D14FF025
:40668000FF3026E023692A4639463046C0470130F5D023689B0710D5002504F1190907E001234A4639463046C0470130E7D00135E368039A9B1A9D42F2DBE068039B9842AB
:4066C000B8BF184605E00B7804F1420584F842308AE705B0BDE8F0831A6A000060CA000010B5C9B202449042034605D01C7801308C42F8D1184610BD002010BD10B5431E37
:406700000A44914204D011F8014B03F8014FF8E710BD884210B501EB020301D8421E0BE09842FBD28118D21AD34204D013F8014D01F8014DF8E710BD994204D011F8014B0F
:4067400002F8014FF8E710BD38B50546002944D051F8043C0C1F002BB8BFE41800F0D4F81E4A1368114613B96360146030E0A3420DD92268A018834201BF18685B68121854
:40678000226063600C6023E0A24203D813465A68002AF9D118681918A1420BD12168014458188242196013D110685268014419605A600DE002D90C232B6009E02168601872
:4067C000824201BF106852680918216062605C602846BDE8384000F098B838BDE8FFFF1F70B5CD1C25F0030508350C2D38BF0C25002D064601DBA94202D90C23336046E032
:4068000000F082F8234B1C681A462146A1B10B685B1B0ED40B2B03D90B60CC18CD501EE08C420BBF63684B681360636018BF0C4615E00C464968E9E7174C23681BB9304627
:4068400000F052F820602946304600F04DF8431C18D0C41C24F00304A0420DD12560304600F053F804F10B00231D20F00700C31A0ED05A42E25070BD211A304600F034F832
:406880000130EBD10C233360304600F03EF8002070BD00BFE8FFFF1FE4FFFF1FF8B5074615460E4621B91146BDE8F840FFF798BF1AB9FFF749FF2846F8BD00F027F885426D
:4068C0000ED929463846FFF78BFF044650B131462A46FFF713FF31463846FFF735FF01E03046F8BD2046F8BD38B5064C0023054608462360FCF726FF431C02D1236803B1BD
:406900002B6038BDC80000207047704751F8040C0028BEBF091851F8043CC01804387047000000004F4E20004F4646200046696C74657220004279706173732000566F6C0D
:40694000746167652047656E657261746F7220344348002048617264776172652076657273696F6E3A200025642E256400204669726D776172652076657273696F6E3A20E5
:406980000046656220323120323032330031303A32363A34370025303258002573004F4B004E4700256600000D510040244300403D510040585B0040020020203D51004071
:4069C0003D510040400400000D510040244300403D510040585B0040010010103D5100403D5100408008405100403000C051004010000000014000100014014000080040EA
:406A00000140000A004C0140000200500140200010510140100C0048060030313233343536373839414243444546008080808080808181818181828282828283838383837F
:406A40008484848484858585858586868686868787878787888888888889898989898A8A8A8A8A8A8B8B8B8B8B8C8C8C8C8C8D8D8D8D8D8E8E8E8E8E8F8F8F8F8F909090A2
:406A8000909091919191919292929292929393939393949494949495959595959696969696979797979798989898989899999999999A9A9A9A9A9B9B9B9B9B9C9C9C9C9C46
:406AC0009C9D9D9D9D9D9E9E9E9E9E9F9F9F9F9FA0A0A0A0A0A0A1A1A1A1A1A2A2A2A2A2A3A3A3A3A3A4A4A4A4A4A4A5A5A5A5A5A6A6A6A6A6A7A7A7A7A7A7A8A8A8A8A8F9
:406B0000A9A9A9A9A9A9AAAAAAAAAAABABABABABACACACACACACADADADADADAEAEAEAEAEAEAFAFAFAFAFB0B0B0B0B0B0B1B1B1B1B1B2B2B2B2B2B2B3B3B3B3B3B3B4B4B4BF
:406B4000B4B4B5B5B5B5B5B5B6B6B6B6B6B6B7B7B7B7B7B8B8B8B8B8B8B9B9B9B9B9B9BABABABABABBBBBBBBBBBBBCBCBCBCBCBCBDBDBDBDBDBDBEBEBEBEBEBEBFBFBFBFA8
:406B8000BFBFC0C0C0C0C0C0C1C1C1C1C1C1C2C2C2C2C2C2C3C3C3C3C3C3C4C4C4C4C4C4C5C5C5C5C5C5C6C6C6C6C6C6C7C7C7C7C7C7C8C8C8C8C8C8C8C9C9C9C9C9C9CAB7
:406BC000CACACACACACBCBCBCBCBCBCBCCCCCCCCCCCCCDCDCDCDCDCDCECECECECECECECFCFCFCFCFCFCFD0D0D0D0D0D0D1D1D1D1D1D1D1D2D2D2D2D2D2D2D3D3D3D3D3D3EE
:406C0000D3D4D4D4D4D4D4D4D5D5D5D5D5D5D5D6D6D6D6D6D6D6D7D7D7D7D7D7D7D8D8D8D8D8D8D8D9D9D9D9D9D9D9DADADADADADADADADBDBDBDBDBDBDBDCDCDCDCDCDC5B
:406C4000DCDCDDDDDDDDDDDDDDDEDEDEDEDEDEDEDEDFDFDFDFDFDFDFDFE0E0E0E0E0E0E0E0E1E1E1E1E1E1E1E1E2E2E2E2E2E2E2E2E3E3E3E3E3E3E3E3E3E4E4E4E4E4E4FE
:406C8000E4E4E5E5E5E5E5E5E5E5E5E6E6E6E6E6E6E6E6E6E7E7E7E7E7E7E7E7E7E8E8E8E8E8E8E8E8E8E9E9E9E9E9E9E9E9E9E9EAEAEAEAEAEAEAEAEAEAEBEBEBEBEBEBE2
:406CC000EBEBEBEBECECECECECECECECECECEDEDEDEDEDEDEDEDEDEDEEEEEEEEEEEEEEEEEEEEEEEFEFEFEFEFEFEFEFEFEFEFEFF0F0F0F0F0F0F0F0F0F0F0F1F1F1F1F1F10A
:406D0000F1F1F1F1F1F1F2F2F2F2F2F2F2F2F2F2F2F2F2F3F3F3F3F3F3F3F3F3F3F3F3F3F4F4F4F4F4F4F4F4F4F4F4F4F4F4F4F5F5F5F5F5F5F5F5F5F5F5F5F5F5F6F6F678
:406D4000F6F6F6F6F6F6F6F6F6F6F6F6F6F7F7F7F7F7F7F7F7F7F7F7F7F7F7F7F7F7F7F8F8F8F8F8F8F8F8F8F8F8F8F8F8F8F8F8F8F8F9F9F9F9F9F9F9F9F9F9F9F9F9F931
:406D8000F9F9F9F9F9F9F9F9FAFAFAFAFAFAFAFAFAFAFAFAFAFAFAFAFAFAFAFAFAFAFAFAFAFBFBFBFBFBFBFBFBFBFBFBFBFBFBFBFBFBFBFBFBFBFBFBFBFBFBFBFBFBFBFB3C
:406DC000FBFBFBFCFCFCFCFCFCFCFCFCFCFCFCFCFCFCFCFCFCFCFCFCFCFCFCFCFCFCFCFCFCFCFCFCFCFCFCFCFCFCFCFCFCFCFCFCFCFCFCFCFCFCFCFCFCFCFCFCFCFCFCFC96
:406E0000FCFCFCFCFCFCFCFCFCFCFCFCFCFCFCFCFCFCFCFCFCFCFCFCFCFCFCFCFCFCFCFCFCFCFCFCFCFCFCFCFCFCFCFCFCFCFCFCFCFCFCFCFCFCFCFCFCFCFCFCFCFCFCFC52
:406E4000FCFCFCFCFCFCFCFCFCFCFCFCFCFCFCFCFCFCFCFCFCFCFCFCFCFCFCFCFCFCFCFCFCFCFCFCFBFBFBFBFBFBFBFBFBFBFBFBFBFBFBFBFBFBFBFBFBFBFBFBFBFBFBFB2E
:406E8000FBFBFBFBFBFBFAFAFAFAFAFAFAFAFAFAFAFAFAFAFAFAFAFAFAFAFAFAFAFAFAF9F9F9F9F9F9F9F9F9F9F9F9F9F9F9F9F9F9F9F9F9F9F8F8F8F8F8F8F8F8F8F8F878
:406EC000F8F8F8F8F8F8F8F8F7F7F7F7F7F7F7F7F7F7F7F7F7F7F7F7F7F7F6F6F6F6F6F6F6F6F6F6F6F6F6F6F6F6F5F5F5F5F5F5F5F5F5F5F5F5F5F5F4F4F4F4F4F4F4F40E
:406F0000F4F4F4F4F4F4F4F3F3F3F3F3F3F3F3F3F3F3F3F3F2F2F2F2F2F2F2F2F2F2F2F2F2F1F1F1F1F1F1F1F1F1F1F1F1F0F0F0F0F0F0F0F0F0F0F0EFEFEFEFEFEFEFEFF0
:406F4000EFEFEFEFEEEEEEEEEEEEEEEEEEEEEEEDEDEDEDEDEDEDEDEDEDECECECECECECECECECECEBEBEBEBEBEBEBEBEBEBEAEAEAEAEAEAEAEAEAEAE9E9E9E9E9E9E9E9E91E
:406F8000E9E8E8E8E8E8E8E8E8E8E7E7E7E7E7E7E7E7E7E6E6E6E6E6E6E6E6E6E5E5E5E5E5E5E5E5E5E4E4E4E4E4E4E4E4E3E3E3E3E3E3E3E3E3E2E2E2E2E2E2E2E2E1E191
:406FC000E1E1E1E1E1E1E0E0E0E0E0E0E0E0DFDFDFDFDFDFDFDFDEDEDEDEDEDEDEDEDDDDDDDDDDDDDDDCDCDCDCDCDCDCDCDBDBDBDBDBDBDBDADADADADADADADAD9D9D9D947
:40700000D9D9D9D8D8D8D8D8D8D8D7D7D7D7D7D7D7D6D6D6D6D6D6D6D5D5D5D5D5D5D5D4D4D4D4D4D4D4D3D3D3D3D3D3D3D2D2D2D2D2D2D2D1D1D1D1D1D1D1D0D0D0D0D039
:40704000D0CFCFCFCFCFCFCFCECECECECECECECDCDCDCDCDCDCCCCCCCCCCCCCBCBCBCBCBCBCBCACACACACACAC9C9C9C9C9C9C8C8C8C8C8C8C8C7C7C7C7C7C7C6C6C6C6C660
:40708000C6C5C5C5C5C5C5C4C4C4C4C4C4C3C3C3C3C3C3C2C2C2C2C2C2C1C1C1C1C1C1C0C0C0C0C0C0BFBFBFBFBFBFBEBEBEBEBEBEBDBDBDBDBDBDBCBCBCBCBCBCBBBBBBBB
:4070C000BBBBBBBABABABABAB9B9B9B9B9B9B8B8B8B8B8B8B7B7B7B7B7B6B6B6B6B6B6B5B5B5B5B5B5B4B4B4B4B4B3B3B3B3B3B3B2B2B2B2B2B2B1B1B1B1B1B0B0B0B0B03B
:40710000B0AFAFAFAFAFAEAEAEAEAEAEADADADADADACACACACACACABABABABABAAAAAAAAAAA9A9A9A9A9A9A8A8A8A8A8A7A7A7A7A7A7A6A6A6A6A6A5A5A5A5A5A4A4A4A4DF
:40714000A4A4A3A3A3A3A3A2A2A2A2A2A1A1A1A1A1A0A0A0A0A0A09F9F9F9F9F9E9E9E9E9E9D9D9D9D9D9C9C9C9C9C9C9B9B9B9B9B9A9A9A9A9A99999999999898989898A1
:407180009897979797979696969696959595959594949494949393939393929292929292919191919190909090908F8F8F8F8F8E8E8E8E8E8D8D8D8D8D8C8C8C8C8C8B8B75
:4071C0008B8B8B8A8A8A8A8A8A8989898989888888888887878787878686868686858585858584848484848383838383828282828281818181818080808080807F7F7F7F55
:407200007F7E7E7E7E7E7D7D7D7D7D7C7C7C7C7C7B7B7B7B7B7A7A7A7A7A797979797978787878787777777777767676767675757575757574747474747373737373727238
